{
  "contractName": "Election",
  "abi": [
    {
      "constant": false,
      "inputs": [
        {
          "name": "_candidateIndex",
          "type": "uint256"
        }
      ],
      "name": "vote",
      "outputs": [],
      "payable": false,
      "stateMutability": "nonpayable",
      "type": "function"
    },
    {
      "constant": true,
      "inputs": [],
      "name": "candidatesCount",
      "outputs": [
        {
          "name": "",
          "type": "uint256"
        }
      ],
      "payable": false,
      "stateMutability": "view",
      "type": "function"
    },
    {
      "constant": true,
      "inputs": [
        {
          "name": "",
          "type": "uint256"
        }
      ],
      "name": "candidates",
      "outputs": [
        {
          "name": "id",
          "type": "uint256"
        },
        {
          "name": "name",
          "type": "string"
        },
        {
          "name": "voteCount",
          "type": "uint256"
        }
      ],
      "payable": false,
      "stateMutability": "view",
      "type": "function"
    },
    {
      "constant": false,
      "inputs": [
        {
          "name": "_name",
          "type": "string"
        }
      ],
      "name": "addCandidate",
      "outputs": [],
      "payable": false,
      "stateMutability": "nonpayable",
      "type": "function"
    },
    {
      "constant": true,
      "inputs": [
        {
          "name": "",
          "type": "address"
        }
      ],
      "name": "voters",
      "outputs": [
        {
          "name": "",
          "type": "bool"
        }
      ],
      "payable": false,
      "stateMutability": "view",
      "type": "function"
    },
    {
      "inputs": [],
      "payable": false,
      "stateMutability": "nonpayable",
      "type": "constructor"
    }
  ],
  "bytecode": "0x6060604052341561000f57600080fd5b6100606040805190810160405280600b81526020017f43616e64696461746520310000000000000000000000000000000000000000008152506100b664010000000002610357176401000000009004565b6100b16040805190810160405280600b81526020017f43616e64696461746520320000000000000000000000000000000000000000008152506100b664010000000002610357176401000000009004565b6101d8565b60026000815480929190600101919050555060606040519081016040528060025481526020018281526020016000815250600160006002548152602001908152602001600020600082015181600001556020820151816001019080519060200190610122929190610133565b506040820151816002015590505050565b828054600181600116156101000203166002900490600052602060002090601f016020900481019282601f1061017457805160ff19168380011785556101a2565b828001600101855582156101a2579182015b828111156101a1578251825591602001919060010190610186565b5b5090506101af91906101b3565b5090565b6101d591905b808211156101d15760008160009055506001016101b9565b5090565b90565b6104c5806101e76000396000f30060606040526004361061006d576000357c0100000000000000000000000000000000000000000000000000000000900463ffffffff1680630121b93f146100725780632d35a8a2146100955780633477ee2e146100be578063462e91ec14610185578063a3ec138d146101e2575b600080fd5b341561007d57600080fd5b6100936004808035906020019091905050610233565b005b34156100a057600080fd5b6100a8610328565b6040518082815260200191505060405180910390f35b34156100c957600080fd5b6100df600480803590602001909190505061032e565b60405180848152602001806020018381526020018281038252848181546001816001161561010002031660029004815260200191508054600181600116156101000203166002900480156101745780601f1061014957610100808354040283529160200191610174565b820191906000526020600020905b81548152906001019060200180831161015757829003601f168201915b505094505050505060405180910390f35b341561019057600080fd5b6101e0600480803590602001908201803590602001908080601f01602080910402602001604051908101604052809392919081815260200183838082843782019150505050505091905050610357565b005b34156101ed57600080fd5b610219600480803573ffffffffffffffffffffffffffffffffffffffff169060200190919050506103d4565b604051808215151515815260200191505060405180910390f35b6000803373ffffffffffffffffffffffffffffffffffffffff1673ffffffffffffffffffffffffffffffffffffffff16815260200190815260200160002060009054906101000a900460ff1615151561028b57600080fd5b60008111801561029d57506002548111155b15156102a857600080fd5b60016000803373ffffffffffffffffffffffffffffffffffffffff1673ffffffffffffffffffffffffffffffffffffffff16815260200190815260200160002060006101000a81548160ff021916908315150217905550600160008281526020019081526020016000206002016000815480929190600101919050555050565b60025481565b600160205280600052604060002060009150905080600001549080600101908060020154905083565b600260008154809291906001019190505550606060405190810160405280600254815260200182815260200160008152506001600060025481526020019081526020016000206000820151816000015560208201518160010190805190602001906103c39291906103f4565b506040820151816002015590505050565b60006020528060005260406000206000915054906101000a900460ff1681565b828054600181600116156101000203166002900490600052602060002090601f016020900481019282601f1061043557805160ff1916838001178555610463565b82800160010185558215610463579182015b82811115610462578251825591602001919060010190610447565b5b5090506104709190610474565b5090565b61049691905b8082111561049257600081600090555060010161047a565b5090565b905600a165627a7a72305820e19404720546bc618fa451f974e204c95a09f9d3b05e5f91cafadc38552b77430029",
  "source": "pragma solidity ^0.4.11;\n\ncontract Election {\n    // Data structure; read values by index\n    struct Candidate {\n        uint id;\n        string name;\n        uint voteCount;\n    }\n\n    // Keeps track that an address voted\n    mapping(address => bool) public voters; // TODO: public for debugging\n    // Keeps track of candidates\n    mapping(uint => Candidate) public candidates;\n    // Keeps track of candidates to compare ids\n    uint public candidatesCount;\n\n    // voted event\n\n    // We could initialize this with other values, but let's keep it simple for now.\n    function Election () {\n        addCandidate(\"Candidate 1\");\n        addCandidate(\"Candidate 2\");\n    }\n\n    function addCandidate (string _name) {\n        candidatesCount ++;\n        candidates[candidatesCount] = Candidate(candidatesCount, _name, 0);\n    }\n\n    function vote (uint _candidateIndex) public {\n        // _hasVoted = voters(msg.sender);\n        // require(!voters[msg.sender]);\n        require(!voters[msg.sender]);\n        // require that they haven't voted before\n\n        // require a valid candidate; make sure the name isn't empty string?\n        // Compare candidate index with candidate id here;\n        require(_candidateIndex > 0 && _candidateIndex <= candidatesCount);\n\n        voters[msg.sender] = true;\n        // mark voted true\n\n        // update candidate vote counter\n        candidates[_candidateIndex].voteCount ++;\n\n        // trigger voted event\n    }\n}\n",
  "sourcePath": "/Users/gregory/code/voting_dapp/contracts/Election.sol",
  "compiler": {
    "name": "solc",
    "version": "0.4.18+commit.9cf6e910.Emscripten.clang"
  },
  "schemaVersion": "1.0.1",
  "updatedAt": "2018-01-13T02:05:04.633Z"
}