{
  "contractName": "Election",
  "abi": [
    {
      "constant": false,
      "inputs": [
        {
          "name": "_candidateIndex",
          "type": "uint256"
        }
      ],
      "name": "vote",
      "outputs": [],
      "payable": false,
      "stateMutability": "nonpayable",
      "type": "function"
    },
    {
      "constant": true,
      "inputs": [],
      "name": "candidatesCount",
      "outputs": [
        {
          "name": "",
          "type": "uint256"
        }
      ],
      "payable": false,
      "stateMutability": "view",
      "type": "function"
    },
    {
      "constant": true,
      "inputs": [
        {
          "name": "",
          "type": "uint256"
        }
      ],
      "name": "candidates",
      "outputs": [
        {
          "name": "id",
          "type": "uint256"
        },
        {
          "name": "name",
          "type": "string"
        },
        {
          "name": "voteCount",
          "type": "uint256"
        }
      ],
      "payable": false,
      "stateMutability": "view",
      "type": "function"
    },
    {
      "inputs": [],
      "payable": false,
      "stateMutability": "nonpayable",
      "type": "constructor"
    }
  ],
  "bytecode": "0x6060604052341561000f57600080fd5b60026000815480929190600101919050555060606040519081016040528060025481526020016040805190810160405280600b81526020017f43616e6469646174652031000000000000000000000000000000000000000000815250815260200160008152506001600060025481526020019081526020016000206000820151816000015560208201518160010190805190602001906100b0929190610172565b506040820151816002015590505060026000815480929190600101919050555060606040519081016040528060025481526020016040805190810160405280600b81526020017f43616e64696461746520320000000000000000000000000000000000000000008152508152602001600081525060016000600254815260200190815260200160002060008201518160000155602082015181600101908051906020019061015f929190610172565b5060408201518160020155905050610217565b828054600181600116156101000203166002900490600052602060002090601f016020900481019282601f106101b357805160ff19168380011785556101e1565b828001600101855582156101e1579182015b828111156101e05782518255916020019190600101906101c5565b5b5090506101ee91906101f2565b5090565b61021491905b808211156102105760008160009055506001016101f8565b5090565b90565b6101cd806102266000396000f300606060405260043610610057576000357c0100000000000000000000000000000000000000000000000000000000900463ffffffff1680630121b93f1461005c5780632d35a8a21461007f5780633477ee2e146100a8575b600080fd5b341561006757600080fd5b61007d600480803590602001909190505061016f565b005b341561008a57600080fd5b610092610172565b6040518082815260200191505060405180910390f35b34156100b357600080fd5b6100c96004808035906020019091905050610178565b604051808481526020018060200183815260200182810382528481815460018160011615610100020316600290048152602001915080546001816001161561010002031660029004801561015e5780601f106101335761010080835404028352916020019161015e565b820191906000526020600020905b81548152906001019060200180831161014157829003601f168201915b505094505050505060405180910390f35b50565b60025481565b6001602052806000526040600020600091509050806000015490806001019080600201549050835600a165627a7a72305820782dd42ae191979ed79c7994b8de899b64401bf2669650d4baa2a7d425ef67ea0029",
  "source": "pragma solidity ^0.4.11;\n\ncontract Election {\n    struct Candidate {\n        uint id;\n        string name;\n        uint voteCount;\n    }\n\n    // Keeps track that an address voted\n    mapping(address => bool) voters;\n    // Keeps track of candidates\n    mapping(uint => Candidate) public candidates;\n    // Keeps track of candidates to compare ids\n    uint public candidatesCount;\n\n    // voted event\n\n    // We could initialize this with other values, but let's keep it simple for now.\n    function Election () {\n        // Refactor This?\n        candidatesCount ++;\n        candidates[candidatesCount] = Candidate(candidatesCount, \"Candidate 1\", 0);\n        candidatesCount ++;\n        candidates[candidatesCount] = Candidate(candidatesCount, \"Candidate 2\", 0);\n    }\n\n    function vote (uint _candidateIndex) public {\n        // require that they haven't voted before\n        // require a valid candidate; make sure the name isn't empty string?\n        // Compare candidate index with candidate id here;\n\n        // mark voted true\n\n        // update candidate vote counter\n\n        // trigger voted event\n    }\n}\n",
  "sourcePath": "/Users/gregory/code/voting_dapp/contracts/Election.sol",
  "compiler": {
    "name": "solc",
    "version": "0.4.18+commit.9cf6e910.Emscripten.clang"
  },
  "schemaVersion": "1.0.1",
  "updatedAt": "2018-01-12T19:36:25.120Z"
}